:100000000C9461000C947E000C947E000C947E0095
:100010000C947E000C947E000C947E000C947E0068
:100020000C947E000C947E000C947E000C947E0058
:100030000C947E000C947E000C947E000C947E0048
:100040000C94B6000C947E000C947E000C947E0000
:100050000C947E000C947E000C947E000C947E0028
:100060000C947E000C947E00000000002400270009
:100070002A0000000000250028002B0000000000DE
:1000800023002600290004040404040404040202DA
:100090000202020203030303030301020408102007
:1000A0004080010204081020010204081020000012
:1000B0000007000201000003040600000000000029
:1000C000000011241FBECFEFD8E0DEBFCDBF11E08E
:1000D000A0E0B1E0ECE6F4E002C005900D92A6309D
:1000E000B107D9F711E0A6E0B1E001C01D92AF3031
:1000F000B107E1F70E9425020C9434020C94000031
:100100008091040161E00E94D10164EF71E080E020
:1001100090E00E94FE008091000161E00E94D10108
:100120008091040160E00E94D10164EF71E080E001
:1001300090E00E94FE008091000160E00E94D101E9
:1001400008958091000161E00E9492018091020176
:1001500061E00E9492018091040161E00E9492019D
:100160008091020160E00E94D10108951F920F92D8
:100170000FB60F9211242F933F938F939F93AF93BA
:10018000BF9380910A0190910B01A0910C01B09155
:100190000D0130910E010196A11DB11D232F2D5F80
:1001A0002D3720F02D570196A11DB11D20930E0172
:1001B00080930A0190930B01A0930C01B0930D0161
:1001C0008091060190910701A0910801B091090169
:1001D0000196A11DB11D8093060190930701A09384
:1001E0000801B0930901BF91AF919F918F913F9109
:1001F0002F910F900FBE0F901F9018959B01AC018F
:100200007FB7F8948091060190910701A0910801B1
:10021000B091090166B5A89B05C06F3F19F0019622
:10022000A11DB11D7FBFBA2FA92F982F8827860F38
:10023000911DA11DB11D62E0880F991FAA1FBB1F50
:100240006A95D1F7BC012DC0FFB7F89480910601E3
:1002500090910701A0910801B0910901E6B5A89B12
:1002600005C0EF3F19F00196A11DB11DFFBFBA2FC8
:10027000A92F982F88278E0F911DA11DB11DE2E097
:10028000880F991FAA1FBB1FEA95D1F7861B970BF2
:10029000885E9340C8F22150304040405040685141
:1002A0007C4F211531054105510571F6089578946B
:1002B00084B5826084BD84B5816084BD85B582606B
:1002C00085BD85B5816085BDEEE6F0E08081816009
:1002D0008083E1E8F0E01082808182608083808109
:1002E00081608083E0E8F0E0808181608083E1EBE1
:1002F000F0E0808184608083E0EBF0E080818160C9
:100300008083EAE7F0E0808184608083808182607E
:100310008083808181608083808180688083109267
:10032000C1000895CF93DF93482F50E0CA0186564D
:100330009F4FFC0134914A575F4FFA018491882303
:1003400069F190E0880F991FFC01E859FF4FA591D2
:10035000B491FC01EE58FF4FC591D491662351F43E
:100360002FB7F8948C91932F909589238C93888143
:1003700089230BC0623061F42FB7F8948C91932FCE
:10038000909589238C938881832B88832FBF06C007
:100390009FB7F8948C91832B8C939FBFDF91CF9163
:1003A0000895482F50E0CA0182559F4FFC012491C7
:1003B000CA0186569F4FFC0194914A575F4FFA013C
:1003C0003491332309F440C0222351F1233071F0DA
:1003D000243028F42130A1F0223011F514C0263049
:1003E000B1F02730C1F02430D9F404C080918000EE
:1003F0008F7703C0809180008F7D8093800010C034
:1004000084B58F7702C084B58F7D84BD09C080918B
:10041000B0008F7703C08091B0008F7D8093B000D3
:10042000E32FF0E0EE0FFF1FEE58FF4FA591B491C0
:100430002FB7F894662321F48C919095892302C0FC
:100440008C91892B8C932FBF0895CF93DF930E94BB
:1004500057010E94A100C0E0D0E00E9480002097D8
:0C046000E1F30E940000F9CFF894FFCFF8
:06046C000C000B000D0066
:00000001FF
